:100000000C941B070C9438070C9438070C94380791
:100010000C9438070C9438070C9438070C94380764
:100020000C9438070C9438070C9438070C943A0752
:100030000C9438070C9438070C9438070C94380744
:100040000C9438070C9438070C9438070C94380734
:100050000C9438070C9438070C9438070C94380724
:100060000C9438070C94380787078707BD07DA0711
:10007000F6072808440861087D089A08B708D408DC
:10008000F0080C091F093909F3092B0A6B0AB00A99
:10009000B00AB00AB00AB00AB00AB00AB00AB00A90
:1000A000F90A2B0A2B0A2B0A80808182838384859C
:1000B00086878788898A8A8B8C8D8E8E8F90919285
:1000C000929394959596979898999A9B9C9C9D9EAF
:1000D0009F9FA0A1A2A2A3A4A5A5A6A7A8A8A9AADC
:1000E000ABABACADAEAEAFB0B0B1B2B3B3B4B5B60E
:1000F000B6B7B8B8B9BABABBBCBDBDBEBFBFC0C148
:10010000C1C2C3C3C4C5C5C6C7C7C8C9C9CACACB8B
:10011000CCCCCDCECECFCFD0D1D1D2D3D3D4D4D5D9
:10012000D5D6D7D7D8D8D9D9DADBDBDCDCDDDDDE34
:10013000DEDFDFE0E0E1E1E2E2E3E3E4E4E5E5E69F
:10014000E6E7E7E8E8E9E9E9EAEAEBEBECECECED15
:10015000EDEEEEEEEFEFF0F0F0F1F1F1F2F2F3F39D
:10016000F3F4F4F4F5F5F5F5F6F6F6F7F7F7F7F836
:10017000F8F8F9F9F9F9FAFAFAFAFAFBFBFBFBFBE2
:10018000FCFCFCFCFCFDFDFDFDFDFDFDFEFEFEFEA0
:10019000FEFEFEFEFFFFFFFFFFFFFFFFFFFFFFFF73
:1001A000FFFFFFFFFFFFFFFFFFFFFFFFFFFFFFFF5F
:1001B000FFFFFFFFFFFFFFFFFFFFFFFFFFFEFEFE52
:1001C000FEFEFEFEFEFDFDFDFDFDFDFDFCFCFCFC5E
:1001D000FCFBFBFBFBFBFAFAFAFAFAF9F9F9F9F87E
:1001E000F8F8F7F7F7F7F6F6F6F5F5F5F5F4F4F4B1
:1001F000F3F3F3F2F2F1F1F1F0F0F0EFEFEEEEEEF7
:10020000EDEDECECECEBEBEAEAE9E9E9E8E8E7E74D
:10021000E6E6E5E5E4E4E3E3E2E2E1E1E0E0DFDFB6
:10022000DEDEDDDDDCDCDBDBDAD9D9D8D8D7D7D62A
:10023000D5D5D4D4D3D3D2D1D1D0CFCFCECECDCCAF
:10024000CCCBCACAC9C9C8C7C7C6C5C5C4C3C3C23F
:10025000C1C1C0BFBFBEBDBDBCBBBABAB9B8B8B7DB
:10026000B6B6B5B4B3B3B2B1B0B0AFAEAEADACAB81
:10027000ABAAA9A8A8A7A6A5A5A4A3A2A2A1A09F2E
:100280009F9E9D9C9C9B9A999898979695959493E0
:10029000929291908F8E8E8D8C8B8A8A8988878797
:1002A0008685848383828180807F7E7D7C7C7B7A4F
:1002B000797878777675757473727171706F6E6D09
:1002C0006D6C6B6A6A6968676766656463636261BF
:1002D00060605F5E5D5D5C5B5A5A59585757565572
:1002E000545453525151504F4F4E4D4C4C4B4A4920
:1002F00049484747464545444342424140403F3EC6
:100300003E3D3C3C3B3A3A39383837363635353461
:10031000333332313130302F2E2E2D2C2C2B2B2AF3
:100320002A29282827272626252424232322222178
:100330002120201F1F1E1E1D1D1C1C1B1B1A1A19ED
:100340001918181717161616151514141313131257
:100350001211111110100F0F0F0E0E0E0D0D0C0CAF
:100360000C0B0B0B0A0A0A0A0909090808080807F6
:10037000070706060606050505050504040404042A
:10038000030303030302020202020202010101014C
:100390000101010100000000000000000000000059
:1003A000000000000000000000000000000000004D
:1003B000000000000000000000000000000101013A
:1003C000010101010102020202020202030303030E
:1003D00003040404040405050505050606060607CE
:1003E0000707080808080909090A0A0A0A0B0B0B7B
:1003F0000C0C0C0D0D0E0E0E0F0F0F101011111115
:10040000121213131314141515161616171718189D
:1004100019191A1A1B1B1C1C1D1D1E1E1F1F202014
:100420002121222223232424252626272728282980
:100430002A2A2B2B2C2C2D2E2E2F303031313233DB
:10044000333435353636373838393A3A3B3C3C3D2B
:100450003E3E3F404041424243444545464747486F
:1004600049494A4B4C4C4D4E4F4F505151525354A9
:10047000545556575758595A5A5B5C5D5D5E5F60DC
:100480006061626363646566676768696A6A6B6C0A
:100490006D6D6E6F70717172737475757677787833
:1004A000797A7B7C7C7D7E7F8883BDB2AAA19D9B6F
:1004B000989BB9C1BDC8CCC2BBB9BFB5A3AAA4A201
:1004C00096A5AD925376CAA4779E9C8C9BA0A1A1C1
:1004D00089A0A69CA3AAA699ADBABAB5ACC4A4A19A
:1004E000AAA0ACADA79FA4ADAEAEA2ACA5AFA7AC81
:1004F000ABA4AFA49EA8AA8D8A9DA2A1969EB9B7CF
:10050000A7A26B03265A3840454D606E00000101DA
:10051000020203040405050607070808090A0A0B76
:100520000B0C0D0D0E0E0F101011111213131414CD
:1005300015161617171818191A1A1B1B1C1D1D1E25
:100540001E1F20202121222323242425262627277D
:100550002829292A2A2B2C2C2D2D2E2F2F303031D3
:1005600031323333343435363637373839393A3A2D
:100570003B3C3C3D3D3E3F3F404041424243434483
:100580004545464647474849494A4A4B4C4C4D4DDC
:100590004E4F4F5050515252535354555556565733
:1005A000585859595A5B5B5C5C5D5E5E5F5F60608A
:1005B0006162626363646565666667686869696AE3
:1005C0006B6B6C6C6D6E6E6F6F7071717272737439
:1005D000747575767777787879797A7B7B7C7C7C93
:1005E0007C7B7B7A79797878777776757574747394
:1005F00072727171706F6F6E6E6D6C6C6B6B6A691D
:1006000069686867666665656463636262616060A5
:100610005F5F5E5E5D5C5C5B5B5A5959585857562C
:1006200056555554535352525150504F4F4E4D4DB5
:100630004C4C4B4A4A49494847474646454544433E
:100640004342424140403F3F3E3D3D3C3C3B3A3AC5
:10065000393938373736363534343333323131304F
:10066000302F2F2E2D2D2C2C2B2A2A2929282727D5
:100670002626252424232322212120201F1E1E1D5F
:100680001D1C1B1B1A1A19181817171616151414E7
:10069000131312111110100F0E0E0D0D0C0B0B0A6F
:1006A0000A090808070706050504040302020101F8
:1006B00000000101020203040405050607070808FB
:1006C000090A0A0B0B0C0D0D0E0E0F101011111252
:1006D0001313141415161617171818191A1A1B1BAA
:1006E0001C1D1D1E1E1F2020212122232324242502
:1006F000262627272829292A2A2B2C2C2D2D2E2F58
:100700002F303031313233333434353636373738B1
:1007100039393A3A3B3C3C3D3D3E3F3F4040414207
:10072000424343444545464647474849494A4A4B60
:100730004C4C4D4D4E4F4F505051525253535455B7
:1007400055565657585859595A5B5B5C5C5D5E5E0E
:100750005F5F606061626263636465656666676867
:100760006869696A6B6B6C6C6D6E6E6F6F707171BE
:1007700072727374747575767777787879797A7B15
:100780007B7C7C7D7E7E7F7F80818182828384846E
:1007900085858687878888898A8A8B8B8C8D8D8EC4
:1007A0008E8F8F909191929293949495959697971E
:1007B0009898999A9A9B9B9C9D9D9E9E9FA0A0A174
:1007C000A1A2A3A3A4A4A5A6A6A7A7A8A8A9AAAACC
:1007D000ABABACADADAEAEAFB0B0B1B1B2B3B3B424
:1007E000B4B5B6B6B7B7B8B9B9BABABBBCBCBDBD7B
:1007F000BEBEBFC0C0C1C1C2C3C3C4C4C5C6C6C7D4
:10080000C7C8C9C9CACACBCCCCCDCDCECFCFD0D02A
:10081000D1D2D2D3D3D4D5D5D6D6D7D7D8D9D9DA81
:10082000DADBDCDCDDDDDEDFDFE0E0E1E2E2E3E3DA
:10083000E4E5E5E6E6E7E8E8E9E9EAEBEBECECED30
:10084000EEEEEFEFF0F0F1F2F2F3F3F4F5F5F6F689
:10085000F7F8F8F95E64768A9DAEBCC8D4D8CEB9F4
:10086000ACB0B8B6ADA8A6A1968E9095948C8586AE
:1008700093A1A3937C768596999497A4AFB0AEAFDD
:10088000B5B8B6AFA8A5A6A59C8F8C949E9B908A60
:1008900092A2B1B7B5B0ADAEB0ADA292898D999E1E
:1008A0009992959A9584797D898F909498958D8A5F
:1008B0008C826D5F64727A7C8081766358554C3887
:1008C000292E383423151212100E0F0F0F12192073
:1008D00023262F3B474F555C636766615E5F605F11
:1008E00060646356494E6474736D7482898B929A06
:1008F0009586828D948E8A95A29F95969A8C736F19
:1009000089A3A28F8893A1A7AAB3C5DBEFF4E9DA84
:10091000D4D1C8BDBCC2C0B6B5C0C7C4C5D4E2DD61
:10092000CDC5C8C7BCB0A79C8D85898D8A81796CDF
:100930005746424954667E90907F6E61503B2F32FD
:100940003D4141454F57564B3E3A45535753586BDF
:100950007B776D738892887B78766B636975715E3F
:100960005158625B45343640433B343D556F7D5BA7
:10097000789ABFD1D0AABAABA99393918791A57A5F
:10098000869898AEAFB4B7A7A79B8C9D9091B1B550
:10099000ADB0A28A98999595788990998C8C6D6460
:1009A0007A8076584C29382312100F0F19232F47BD
:1009B0005563665E606063496473748A929582943D
:1009C0008AA2959A7388A287A2AAC5EEEAD3C8BC68
:1009D000C1B4C8C4E3CCC9BCA88C89897957425535
:1009E0007D906D512E3E405055404359567D6B8A47
:1009F000867A696B70536046344533567C43434373
:100A000043434343434343434343434343434343B6
:100A1000434343434344444444444444444444449B
:100A20004444444444444444444444444445454583
:100A30004545454545454545454546464646464660
:100A40004646464747474747474748484848484932
:100A50004949494A4A4A4A4B4B4B4B4C4C4C4D4DE9
:100A60004D4E4E4F4F4F505051515252535354557B
:100A7000555657575859595A5B5C5D5D5E5F6061CA
:100A8000626364656667686A6B6C6D6F70717374BE
:100A90007577787A7B7D7E8082838587888A8C8E45
:100AA0009091939597999B9D9FA0A2A4A6A8AAAC6C
:100AB000AEB0B2B4B6B8B9BBBDBFC1C3C4C6C8CA74
:100AC000CBCDCFD0D2D3D5D6D8D9DADCDDDEDFE0BE
:100AD000E2E3E4E5E6E7E7E8E9EAEBEBECECEDEE90
:100AE000EEEFEFEFF0F0F0F1F1F1F1F1F1F1F2F200
:100AF000F2F2F1F1F1F1F1F1F1F0F0F0F0EFEFEFEE
:100B0000EEEEEEEDEDECECECEBEBEAEAE9E9E8E831
:100B1000E7E7E6E5E5E4E4E3E2E2E1E1E0DFDFDEAA
:100B2000DDDDDCDCDBDADAD9D8D8D7D6D6D5D4D43B
:100B3000D3D2D2D1D0CFCFCECDCDCCCBCBCAC9C9D9
:100B4000C8C7C7C6C5C5C4C3C3C2C1C1C0BFBFBE75
:100B5000BDBDBCBBBBBABAB9B8B8B7B6B6B5B5B40B
:100B6000B3B3B2B1B1B0B0AFAEAEADADACABABAA9A
:100B7000AAA9A9A8A7A7A6A6A5A5A4A4A3A2A2A11D
:100B8000A1A0A09F9F9E9E9D9D9C9C9B9B9A9A9995
:100B90009998989797969695959494939392929204
:100BA000919190908F8F8E8E8D8D8D8C8C8B8B8B69
:100BB0008A8A8989888888878786868685858584C4
:100BC000848383838282828181808080807F7F7E14
:100BD0007E7D7D7D7D7C7C7B7B7B7A7B797B777D5D
:100BE0005B3D464045414442444200000000000055
:100BF00000000000000000000000000000000000F5
:100C000000000000000000000000000000000000E4
:100C100000000000000000000000000000000000D4
:100C200000000000000000000000000000000000C4
:100C300000000000000000000000000000000000B4
:100C400000000000000000000000000000000000A4
:100C5000000101010101010101010202020202037E
:100C6000030303040404050505060607070809092C
:100C70000A0B0C0D0E0F101113141517191B1C1E47
:100C8000212325282B2E3134373B3E42464A4F53F1
:100C9000585D62676C71767C81878D92989DA3A860
:100CA000AEB3B8BDC2C6CBCFD3D7DBDEE1E4E7E954
:100CB000EBEDEFF1F2F3F4F5F6F6F6F6F6F6F5F500
:100CC000F4F4F3F2F1F0EEEDECEAE9E7E6E4E2E069
:100CD000DFDDDBD9D7D5D4D2D0CECCCAC8C6C4C20A
:100CE000C0BEBCBAB8B6B4B3B1AFADABA9A7A5A4EA
:100CF000A2A09E9C9B9997969492918F8D8C8A88A6
:100D000087858482817F7E7C7B7978777574727128
:100D1000706E6D6C6B6968676664636261605F5D6D
:100D20005C5B5A595857565554535251504F4E4D7B
:100D30004C00121212110B0B0B0B0B0D0D0F0F0FA2
:100D40000F0F0F0F0F0F0F0F0F0F0F1111111112A8
:100D500012121214141416161719191B1B1D202217
:100D6000273140556B8196A7B4C2CBD3DDE2E6E8CC
:100D7000EBE8E9E8E8E8EBE9E8E6E4E2DFDCD7D134
:100D8000CBC2B8AFAA9D968D86796E685D574E44EA
:100D90003D342F2C278084888C9093979BA1A2A30D
:100DA000A5A6A7A8A9AAADAFB2B6BABEC3C8CDD1F1
:100DB000D4D9DCDEE0E1E2E3E4E5E5E6E6E6E6E61A
:100DC000E5E5E4E3E2E1E0DEDCDBD9D7D5D2D0CD66
:100DD000CBC8C5C2BFBCB8B5B2AEAAA7A39F9B97EC
:100DE00094908C8884807B77736F6C6864605C58A7
:100DF00055514D4A4743403D3A3734322F2D2C2C24
:100E00002C2B2B2B2B2B2B2B2B2B2B2B2B2A2A2A34
:100E10002A2A2A2A2A2A2A2A2A2A2A2A2B2B2F3223
:100E200034373A3D4043474A4D5155585C606468F9
:100E30006C6F7377800011241FBECFEFD4E0DEBF4C
:100E4000CDBF11E0A0E0B1E0E2EAF6E102C005901A
:100E50000D92A835B107D9F721E0A8E5B1E001C0AE
:100E60001D92AA38B207E1F70E94DA090C944F0BE1
:100E70000C9400001F920F920FB60F9211242F9323
:100E80003F934F935F936F937F938F939F93AF9312
:100E9000BF93EF93FF9380916C018093B300809197
:100EA0006B018093B400789420910001309101018E
:100EB000A9015695479520FF03C080E098EB02C03A
:100EC00080E090E0842795279093010180930001B2
:100ED000209184013091850180FF02C0C90104C0C6
:100EE00088279927821B930B9595879595958795CC
:100EF000805880936C018091890190E08031910548
:100F000008F0CEC1FC01EC5CFF4F0C943A0B8091D1
:100F10006A0190918701891720F48F5F80936A019D
:100F200002C010926A01E0916A01E932C8F4F0E06F
:100F3000E25DFE4FA081B0E00E94400B24E0969558
:100F40008795779567952A95D1F7611522E0720705
:100F500054F461158EEF780744F460E07EEF05C02D
:100F600060E070E002C06FEF71E075956795759570
:100F70006795605860936B0193C18091680190916F
:100F800069019C012F5F3F4F3093690120936801F5
:100F900020918701622F70E00E94260B622F6695D8
:100FA00070E00E94260B269F202D112428582093A4
:100FB0006B0176C1809186018150809386018111F9
:100FC0006FC180915D0190915E018336910530F093
:100FD0008356910990935E0180935D0180915D013C
:100FE00090915E01FC01EE5CF24F1BC08091860186
:100FF000815080938601811153C180915D01909150
:101000005E01811524E0920728F0945090935E01D0
:1010100080935D0180915D0190915E01FC01E85536
:10102000FF4FE491E0936B012091820130E0F901E0
:10103000EE5FFE4F4081840F911D90935E0180937F
:101040005D01F901EE5EFE4F80818093860128C12B
:1010500080918601815080938601811121C1809108
:101060005D0190915E01803A910530F0805A9109BE
:1010700090935E0180935D0180915D0190915E018E
:10108000FC01EB56F24FCDCF8091860181508093C9
:101090008601811105C180915D0190915E018834C6
:1010A00021E0920730F08854914090935E01809344
:1010B0005D0180915D0190915E01FC01E651F44F6C
:1010C000B0CF809186018150809386018111E8C064
:1010D00080915D0190915E018E38910530F08E58BF
:1010E000910990935E0180935D0180915D019091E3
:1010F0005E01FC01E159F64F94CF80918601815049
:10110000809386018111CCC080915D0190915E0138
:101110008B3121E0920730F08B51914090935E012A
:1011200080935D0180915D0190915E01FC01EC5A1C
:10113000F74F77CF8091860181508093860181118E
:10114000AFC080915D0190915E01843A21E09207E9
:1011500030F0845A914090935E0180935D018091BC
:101160005D0190915E01FC01E45FFA4F5ACF8091DE
:101170008601815080938601811192C080915D012A
:1011800090915E01843A21E0920730F0845A9140B8
:1011900090935E0180935D0180915D0190915E016D
:1011A000FC01E055F94F3DCF80918601815080933D
:1011B0008601811175C080915D0190915E01843638
:1011C000910530F08456910990935E0180935D0102
:1011D00080915D0190915E01FC01E855FB4F21CFAC
:1011E0008091810190918301891720F48F5F809312
:1011F00081011AC080916A0191E0980F90936A0171
:101200009091870110926B01891708F449C01092E0
:101210006A011092810144C080916A01811108C065
:101220008091870180936A018FEF80936B0138C0B2
:1012300090E890936B01815080936A0131C0809156
:101240006A01843240F4E82FE695E695F0E0EB5D24
:10125000FE4F908101C090E090936B018F5F8F777C
:1012600080936A01909187012FE79227891318C014
:1012700015C080916A01833030F4E82FF0E0EE5D14
:10128000FE4F908101C090E890936B0191E0980F20
:1012900090936A0190918701981710F410926A0157
:1012A000FF91EF91BF91AF919F918F917F916F913E
:1012B0005F914F913F912F910F900FBE0F901F9014
:1012C0001895ECE7F0E080818F77808380818064DF
:1012D0008083EAE7F0E08081846080838081806899
:1012E000808317B818B8089581E08093860198E04C
:1012F0009AB994B993EA9093B0008093B100109298
:1013000070001092800089E0809381001092850027
:101310001092840080ED97E090938900809388007C
:1013200082E080936F0080E5809387018EE090E0FB
:10133000909385018093840178940E946109EDE681
:10134000F1E01192119281E0E138F807D1F70895A8
:1013500090917C00987F90937C0090917C008770A6
:10136000892B80937C0080917A00806480937A003E
:1013700080917A0084FFFCCF80917900089590914C
:101380007C00987F90937C0090917C008770892BE3
:1013900080937C0080917A00806480937A008091B1
:1013A0007A0084FFFCCF809178002091790090E052
:1013B000922B08950E9474097EE0E72E0AE010E067
:1013C000E0E8FE2E809167018F5FE0928901E09155
:1013D0008901F0E0E031F105B8F7EC5BFF4F809355
:1013E00067010C943A0B8FE39CE90197F1F700C079
:1013F0000000C0916501D0916601D0936401C09353
:10140000630180E090E00E94BF09969587959695CC
:1014100087959093660180936501209161013091D9
:1014200062012817390744F49093620180936101A7
:101430009093600180935F01892B21F6CD2B11F6EB
:1014400080915F019F2D981B9093870110926201FC
:1014500010926101B7CFC0915C01D0E0CC0FDD1FCD
:10146000C359DE4F80915A0190915B0128813981E7
:10147000821B930B90935B0180935A0180E090E074
:101480000E94BF099983888380915A0190915B01E2
:10149000E0915C0141E04E0F40935C01F0E0EE0F03
:1014A000FF1FE359FE4F20813181820F931F9093DC
:1014B0005B0180935A014A3010F010925C01B80130
:1014C0000E94120B709359016093580176956795AD
:1014D0007695679540C0C0915C01D0E0CC0FDD1FD0
:1014E000C359DE4F80915A0190915B012881398167
:1014F000821B930B90935B0180935A0180E090E0F4
:101500000E94BF099983888380915A0190915B0161
:10151000E0915C0141E04E0F40935C01F0E0EE0F82
:10152000FF1FE359FE4F20813181820F931F90935B
:101530005B0180935A014A3010F010925C01B801AF
:101540000E94120B7093590160935801C4E0769584
:101550006795CA95E1F78F2D861B8093870142C05E
:10156000C0915C01D0E0CC0FDD1FC359DE4F8091EC
:101570005A0190915B0128813981821B930B9093D2
:101580005B0180935A0180E090E00E94BF0999833B
:10159000888380915A0190915B01E0915C0141E068
:1015A0004E0F40935C01F0E0EE0FFF1FE359FE4F3A
:1015B00020813181820F931F90935B0180935A01A8
:1015C0004A3010F010925C01B8010E94120B709327
:1015D000590160935801F6E076956795FA95E1F721
:1015E000609382018FE39CE90197F1F700C000004E
:1015F000E9CE80E090E00E94BF0973E09695879560
:101600007A95E1F780958093870181E090E00E94D0
:10161000BF09E5E096958795EA95E1F78F5F80939E
:101620008301D0CEAA1BBB1B51E107C0AA1FBB1F61
:10163000A617B70710F0A61BB70B881F991F5A955E
:10164000A9F780959095BC01CD01089597FB072ED1
:1016500016F4009407D077FD09D00E94120B07FC06
:1016600005D03EF4909581959F4F089570956195B2
:101670007F4F0895EE0FFF1F0590F491E02D099420
:10168000A29FB001B39FC001A39F700D811D1124C3
:10169000911DB29F700D811D1124911D0895F89424
:0216A000FFCF7A
:1016A2000100010101010101010202030304040519
:1016B2000500060504030201010101010101010106
:1016C20001018000FA803600EDDBC9B6A492002A3F
:1016D200D432B212251402E1C5025F5A050F26FC6C
:1016E200A5A5D6DDDCFC252B22210FFFF8EEEDEFC0
:0816F200F7F6FA000302010003
:00000001FF
